{
  "contractName": "AccessRestriction",
  "abi": [
    {
      "inputs": [],
      "name": "creationTime",
      "outputs": [
        {
          "internalType": "uint256",
          "name": "",
          "type": "uint256"
        }
      ],
      "stateMutability": "view",
      "type": "function",
      "constant": true
    },
    {
      "inputs": [],
      "name": "minimumDonation",
      "outputs": [
        {
          "internalType": "uint256",
          "name": "",
          "type": "uint256"
        }
      ],
      "stateMutability": "view",
      "type": "function",
      "constant": true
    },
    {
      "inputs": [],
      "name": "treasury",
      "outputs": [
        {
          "internalType": "address",
          "name": "",
          "type": "address"
        }
      ],
      "stateMutability": "view",
      "type": "function",
      "constant": true
    },
    {
      "inputs": [],
      "name": "sendDonation",
      "outputs": [],
      "stateMutability": "payable",
      "type": "function",
      "payable": true
    },
    {
      "inputs": [],
      "name": "revealHighestDonor",
      "outputs": [
        {
          "internalType": "address",
          "name": "",
          "type": "address"
        }
      ],
      "stateMutability": "view",
      "type": "function",
      "constant": true
    }
  ],
  "bytecode": "0x6080604052336000806101000a81548173ffffffffffffffffffffffffffffffffffffffff021916908373ffffffffffffffffffffffffffffffffffffffff1602179055504260015534801561005457600080fd5b50610458806100646000396000f3fe60806040526004361061004a5760003560e01c806361d027b31461004f5780638dd8596c1461007a57806396d8f4f314610084578063d8270dce146100af578063e33053d4146100da575b600080fd5b34801561005b57600080fd5b50610064610105565b60405161007191906102d1565b60405180910390f35b610082610129565b005b34801561009057600080fd5b5061009961023c565b6040516100a69190610305565b60405180910390f35b3480156100bb57600080fd5b506100c4610242565b6040516100d19190610305565b60405180910390f35b3480156100e657600080fd5b506100ef610248565b6040516100fc91906102d1565b60405180910390f35b60008054906101000a900473ffffffffffffffffffffffffffffffffffffffff1681565b62093a8060015461013a919061034f565b80421061014657600080fd5b600254341161018a576040517f08c379a000000000000000000000000000000000000000000000000000000000815260040161018190610402565b60405180910390fd5b33600360006101000a81548173ffffffffffffffffffffffffffffffffffffffff021916908373ffffffffffffffffffffffffffffffffffffffff1602179055503460028190555060008054906101000a900473ffffffffffffffffffffffffffffffffffffffff1673ffffffffffffffffffffffffffffffffffffffff166108fc349081150290604051600060405180830381858888f19350505050158015610238573d6000803e3d6000fd5b5050565b60025481565b60015481565b600062093a8060015461025b919061034f565b80421161026757600080fd5b600360009054906101000a900473ffffffffffffffffffffffffffffffffffffffff1691505090565b600073ffffffffffffffffffffffffffffffffffffffff82169050919050565b60006102bb82610290565b9050919050565b6102cb816102b0565b82525050565b60006020820190506102e660008301846102c2565b92915050565b6000819050919050565b6102ff816102ec565b82525050565b600060208201905061031a60008301846102f6565b92915050565b7f4e487b7100000000000000000000000000000000000000000000000000000000600052601160045260246000fd5b600061035a826102ec565b9150610365836102ec565b9250827fffffffffffffffffffffffffffffffffffffffffffffffffffffffffffffffff0382111561039a57610399610320565b5b828201905092915050565b600082825260208201905092915050565b7f506c656173652073656e642068696768657220616d6f756e7400000000000000600082015250565b60006103ec6019836103a5565b91506103f7826103b6565b602082019050919050565b6000602082019050818103600083015261041b816103df565b905091905056fea2646970667358221220518505923a634b4c2befb58cdf4bb87846fb42c46dbac60aa288fb31fb5307c064736f6c634300080f0033",
  "immutableReferences": {},
  "source": "// SPDX-License-Identifier: MIT\npragma solidity ^0.8.15;\n\n/**\n * @title An incremental time-bound donation receiver\n */\ncontract AccessRestriction {\n    /**\n     * @dev public variables in global, visible to everyone\n     */\n     address public treasury = msg.sender;\n     uint256 public creationTime = block.timestamp;\n     uint256 public minimumDonation;\n\n     /**\n      * @dev private visibility of winner address\n      */\n      address private winner;\n\n      /** Modifier Blocks */\n      /**\n       * @dev check of donation period has started\n       */\n       modifier onlyBefore(uint256 _time) {\n        require(block.timestamp < _time);\n        _;\n       }\n\n       /**\n        * @dev check if donation period has ended\n        */\n        modifier onlyAfter(uint256 _time) {\n            require(block.timestamp > _time);\n            _;\n        }\n\n        modifier isHigherDonation() {\n            require(msg.value > minimumDonation, \"Please send higher amount\");\n            winner = msg.sender;\n            minimumDonation = msg.value;\n            _;\n        }\n\n        function sendDonation()\n            external\n            payable\n            onlyBefore(creationTime + 1 weeks)\n            isHigherDonation\n        {\n            payable(treasury).transfer(msg.value);\n        }\n\n        function revealHighestDonor() \n            external\n            view\n            onlyAfter(creationTime + 1 weeks)\n            returns (address)\n        {\n            return winner;\n\n        }\n}\n",
  "sourcePath": "/Users/baveracu/workspace/web3/solidity_patterns/contracts/AccessRestriction.sol",
  "compiler": {
    "name": "solc",
    "version": "0.8.15+commit.e14f2714.Emscripten.clang"
  },
  "schemaVersion": "3.4.7",
  "updatedAt": "2022-07-18T12:19:25.825Z",
  "networkType": "ethereum",
  "devdoc": {
    "kind": "dev",
    "methods": {},
    "stateVariables": {
      "treasury": {
        "details": "public variables in global, visible to everyone"
      },
      "winner": {
        "details": "private visibility of winner address"
      }
    },
    "title": "An incremental time-bound donation receiver",
    "version": 1
  },
  "userdoc": {
    "kind": "user",
    "methods": {},
    "version": 1
  }
}